S00E00004C4544204F4E2E7372656384
S11300000C942A000C9434000C9434000C943400A6
S11300100C9434000C9434000C9434000C9434008C
S11300200C9434000C9434000C9434000C9434007C
S11300300C9434000C9434000C9434000C9434006C
S11300400C9434000C9434000C9434000C9434005C
S11300500C94340011241FBECFE5D8E0DEBFCDBF21
S11300600E9436000C943F000C94000087B381601A
S113007087BB88B3816088BB80E090E00895F894E2
S1050080FFCFAC
S9030000FC
