S02B0000347834206D6174726978206B6579626F6172642077697468206D6F63726F70726F636573736F722EA4
S11300000C942A000C943F000C943F000C943F0085
S11300100C943F000C943F000C943F000C943F0060
S11300200C943F000C943F000C943F000C943F0050
S11300300C943F000C943F000C943F000C943F0040
S11300400C943F000C943F000C943F000C943F0030
S11300500C943F0011241FBECFE5D8E0DEBFCDBF16
S113006010E0A0E6B0E0E8E6F2E002C005900D92F0
S1130070AA37B107D9F70E94AC000C9432010C9452
S113008000008FEF81BB12BA8FE084BB80EF85BB89
S1130090089530E03AC0E32FF0E081E090E0032ED1
S11300A002C0880F991F0A94E2F7809585BB20E06F
S11300B029C083B3622F70E0AB014C5F5F4F90E0C7
S11300C0042E02C0959587950A94E2F780FD19C025
S11300D083ED90E30197F1F700C0000083B390E053
S11300E002C0959587954A95E2F780FD0AC0EE0F08
S11300F0FF1FEE0FFF1FE05AFF4FE60FF71F80812F
S113010008952F5F2430A8F23F5F343020F280E05E
S11301100895E82FF0E0E059FF4F808182BB0895F5
S11301204B3249F018F44A3251F012C04D3229F0E2
S11301304F3249F00DC0860F0895861B0895869F9F
S1130140802D11240895662329F00E942601089524
S113015080E0089580E008950E94410010E0D0E01E
S1130160C0E00E9449008823E1F390ED980F9A3093
S1130170A0F5111119C0CC0F9C2F990F990FC90F1D
S11301808C0FC0EDC80F9DECC99F912D112496953D
S113019096959695990F892F880F880F980F8C2F15
S11301A0891B0E9489004BC0DD0F9D2F990F990F69
S11301B0D90F8D0FD0EDD80F9DECD99F912D11241F
S11301C0969596959695990F892F880F880F980F75
S11301D08D2F891B0E94890032C08B3249F18D32E8
S11301E049F18A3249F18F3249F18D33D1F4412FEB
S11301F06D2F8C2F0E949000C82F8DECC89F812DED
S11302001124869586958695880F982F990F990FB6
S1130210890F9C2F981B892F0E94890010E0D0E041
S11302200EC0833461F412BA10E0D0E0C0E007C01D
S1130230182F05C0182F03C0182F01C0182F8FE4E2
S113024093EC0197F1F700C000008BCF991B79E084
S113025004C0991F961708F0961B881F7A95C9F752
S10B026080950895F894FFCF86
S11302683738392F3435362A3132332D43303D2B44
S10D02783F065B4F666D7D077F6F44
S9030000FC
