S0140000377365676D656E74204C45442E73726563F1
S11300000C942A000C943F000C943F000C943F0085
S11300100C943F000C943F000C943F000C943F0060
S11300200C943F000C943F000C943F000C943F0050
S11300300C943F000C943F000C943F000C943F0040
S11300400C943F000C943F000C943F000C943F0030
S11300500C943F0011241FBECFE5D8E0DEBFCDBF16
S113006010E0A0E6B0E0E6EBF0E002C005900D92EF
S1130070AA36B107D9F70E9441000C9459000C9498
S113008000008FEF81BB80E090E00FC0FC01E05ADC
S1130090FF4F208122BB2FE33DE043E0215030405D
S11300A04040E1F700C0000001968A30910574F3E6
S10900B0EACFF894FFCF33
S10D00B63F065B4F666D7D077F6F08
S9030000FC
