S02A0000372D7365676D656E74204C454420646973706C617920776974682074776F204C45442E737265634D
S11300000C942A000C943F000C943F000C943F0085
S11300100C943F000C943F000C943F000C943F0060
S11300200C943F000C943F000C943F000C943F0050
S11300300C943F000C943F000C943F000C943F0040
S11300400C943F000C943F000C943F000C943F0030
S11300500C943F0011241FBECFE5D8E0DEBFCDBF16
S113006010E0A0E6B0E0ECECF0E002C005900D92E8
S1130070AA36B107D9F70E9441000C9464000C948D
S113008000008FEF87BB84BB40E050E019C0FA0149
S1130090E05AFF4F808188BB80E090E00CC0FC01F7
S11300A0E05AFF4F208125BBE3E2F4EF3197F1F7EB
S11300B000C0000001968A3091058CF34F5F5F4FBA
S10F00C04A30510524F3E0CFF894FFCF40
S10D00CC3F065B4F666D7D077F6FF2
S9030000FC
